S01700004763634170706C69636174696F6E352E7372656357
S11300000C942A000C9434000C9434000C943400A6
S11300100C9434000C9434000C9434000C9434008C
S11300200C9434000C9434000C9434000C9434007C
S11300300C9434000C9434000C9434000C9434006C
S11300400C9434000C9434000C9434000C9434005C
S11300500C94340011241FBECFE5D8E0DEBFCDBF21
S11300600E9436000C9491000C9400008FEF87BB23
S113007071E062E054E048E030E120E290E480E89E
S113008078BBAFE3EDE0F3E0A150E040F040E1F7EE
S113009000C0000068BBAFE3EDE0F3E0A150E04036
S11300A0F040E1F700C0000058BBAFE3EDE0F3E03F
S11300B0A150E040F040E1F700C0000048BBAFE3CE
S11300C0EDE0F3E0A150E040F040E1F700C00000B3
S11300D038BBAFE3EDE0F3E0A150E040F040E1F7DE
S11300E000C0000028BBAFE3EDE0F3E0A150E04026
S11300F0F040E1F700C0000098BBAFE3EDE0F3E0AF
S1130100A150E040F040E1F700C0000088BBAFE33D
S1130110EDE0F3E0A150E040F040E1F700C0000062
S1090120AFCFF894FFCFFD
S9030000FC
